:1000000000308A001B28000022308400831300087F
:10001000031918280130F800F701F70B0D28F80B29
:100020000C284A30F700F70B13281628800B0A28F3
:100030008A110A12452803081F398300FF30A100E6
:1000400083161F149F141F159F1107309C008313E4
:1000500001308500003087008312A10083161F1332
:1000600083121F179F1783169F1383121F14831663
:100070001F109F141F159F15F80083121F08C73902
:1000800078049F000A30A20004281F151F19462873
:0C0090001E08A00020088700452863001F
:02400E00723FFF
:00000001FF
;PIC16F877A
;CRC=9BF5  CREATED="12-Apr-21 14:45"
