:1000000000308A002E2800002F08F8012E02031865
:100010000C282E08F7001828F7010830B000AE0DA4
:10002000F70D2F0877020318F700F80DB00B0F2813
:1000300008002E3084008313000803192D28013096
:10004000F800F701F70B2228F80B21284A30F700B7
:10005000F70B28282B28800B1F28080003081F39BE
:10006000830083161F149F141F159F1107309C00D7
:100070008313C0308312A000F930A100A430A20085
:10008000B030A3009930A4009230A5008230A600C1
:10009000F830A7008030A8009030A9000030831607
:1000A000850088008312AA012A08623C031C8A2862
:1000B0002A08AE000A30AF0004207808AB002A08F6
:1000C000AE000A30AF0004207708AC000130AD006C
:1000D0002D08643C031C8828FF3088000514851017
:1000E00020302B0784008313000888000530AE0001
:1000F0001920FF3088000510851420302C0784005B
:100100008313000888000530AE001920AD0A682866
:06011000AA0A5428630056
:02400E00723FFF
:00000001FF
;PIC16F877A
;CRC=27F7  CREATED="24-Mar-21 20:02"
