:1000000000308A003E280000F801F901F701FA01EA
:100010003508031D0E283408031928281030B600AF
:100020000310B20DB30DF70DFA0D35087A02031D5A
:100030001B2834087702031C24283408F702031C09
:10004000FA033508FA020314F80DF90DB60B10285F
:100050000800303084008313000803193D28013064
:10006000F800F701F70B3228F80B31284A30F70077
:10007000F70B38283B28800B2F28080003081F396E
:100080008300AA01AB01AC01AD01AF01AE01831643
:100090001F149F141F159F1107309C008313C0303D
:1000A0008312A000F930A100A430A200B030A30058
:1000B0009930A4009230A5008230A600F830A70045
:1000C0008030A8009030A900003083168500880099
:1000D0008312AF01AE012F08013C031CD528031D7C
:1000E00075282E08003C031CD5282F08B3002E08C5
:1000F000B200B5016430B40004207808AA002F08CB
:10010000B3002E08B200B5010A30B400042079080B
:10011000B1007808B0007908B3007808B200B501E2
:100120000A30B40004207708AB002F08B3002E0873
:10013000B200B5010A30B40004207708AC000130E9
:10014000AD002D08223C031CD128FF30880085100B
:100150000515851520302A078400831300088800C0
:100160000530B0002920FF30880085140511851561
:1001700020302B0784008313000888000530B0006E
:100180002920FF30880085140515851120302C07A3
:1001900084008313000888000530B0002920AD0AD0
:0C01A000A128AE0A0319AF0A6B28630007
:02400E00723FFF
:00000001FF
;PIC16F877A
;CRC=4972  CREATED="05-Apr-21 14:51"
