:1000000001308A00EF2900005634D53420345434AE
:100010004834C0344E34483420344E344834C2342A
:100020004E340034B019B019B11C311A391C00001B
:10003000263084008313000803192C280130F800AF
:10004000F701F70B2128F80B20284A30F700F70BAF
:1000500027282A28800B1E2808002C18312808126F
:1000600032280816831608128312AC183928881211
:100070003A2888168316881283122C1941280813EF
:1000800042280817831608138312AC1949288813CD
:100090004A28881783168813000083128515831653
:1000A0008511522883128511831685118312080049
:1000B000AD018316081600308312081A0130AD0412
:1000C0008316881600308312881A0130F700031057
:1000D000F70D7708AD048316081700308312081B4C
:1000E0000130F700F70DF70DFC30F7057708AD0488
:1000F0008316881700308312881B0130F700F70D34
:10010000F70DF70DF830F7057708AD042D08F80066
:10011000080083168511851005118312851083163A
:100120008510081688160817881783120515831678
:1001300005110000831285158316851100008312B6
:1001400058207808AC0085118316851100008312B1
:100150008515831685110000831258207808AB009E
:1001600085118316851108128812081388138312CB
:100170002C0EF700F030F70577082B04F80078080C
:10018000AB00AB1FC52883169128A908031DCA28F8
:100190008510CB2885148316851000008312051165
:1001A00083160511000083128511831685118312B1
:1001B0002A0EAB000F30AB052B08AC002D202A080F
:1001C0000F39AB00AC002D2008002830A2000C3005
:1001D000A3000130A4000630A50085118316851107
:1001E000831285108316851083120511831605115D
:1001F00008128812081388138511851005110F3015
:100200008312A60018200130A1002108033C031C22
:1002100011290330AC002D200530A6001820A10ABA
:1002200005290230AC002D200530A6001820A101C0
:100230002108033C031C2829223021078400831352
:100240000008A600A9012608AA008920A10A1829E9
:100250008A110A12FF29260B2E2931294030A700C6
:100260003229A70101302502A70727088038A800F6
:10027000A9012808AA00892008002408073A0319C0
:100280004B290B3A03195029063A03195829023A07
:1002900003195E2963290130A500A6002B216829D6
:1002A000A9010130AA0089200230A600182068297F
:1002B0000130A5000230A6002B216829A9011030C9
:1002C000AA00892068290130A9002408AA008920F1
:1002D00008000B08A1008B13831603178C170C144E
:1002E0000000000083120313A11B8B1703178C0857
:1002F000031993290D080313A10003170F08031313
:10030000A20003170C080313A4003D2121080317C2
:100310008D000313220803178F008D0A03198F0A1B
:1003200003136929031703138A110A120A2A0B08F7
:10033000A1008B13831603178C170C140000000008
:1003400083120313A11B8B1703170C087F390319A2
:10035000EB290313A10003170D080313A2000317D1
:100360000F080313A3002108A4003D21220803174E
:100370008D000313230803178F0003130B08A40039
:100380008B13831603178C170C14000000008312C4
:100390000313A41B8B1703170C0D0E0D7F390319C4
:1003A000EB290313A10003170D080313A200031781
:1003B0000F080313A3002108A4003D2122080317FE
:1003C0008D000313230803178F008D0A03198F0A6A
:1003D00003139729031703138A110A12162A030815
:1003E0001F39830083161F149F141F159F11073098
:1003F0009C0083130030850086008312E5280130BD
:10040000A500A6002B21043003178D0000308F00BB
:10041000031369290130A5000230A6002B211230F8
:0E04200003178D0000308F000313972963002F
:02400E00723FFF
:00000001FF
;PIC16F877A
;CRC=A49A  CREATED="31-Thg8-21 14:53"
