:1000000000308A0019280000223084008313000881
:10001000031918280130F800F701F70B0D28F80B29
:100020000C284A30F700F70B13281628800B0A28F3
:10003000080003081F39830083161F149F141F151F
:100040009F1107309C0083130030860083128601C5
:100050000430A100FA30A2000420A10B2A280130AC
:1000600086000430A100FA30A2000420A10B33283E
:10007000033086000430A100FA30A2000420A10B56
:100080003C28073086000430A100FA30A20004208A
:0A009000A10B45280F308600630025
:02400E00723FFF
:00000001FF
;PIC16F877A
;CRC=D7BA  CREATED="10-Mar-21 17:12"
