:1000000000308A00192800002A3084008313000879
:10001000031918280130F800F701F70B0D28F80B29
:100020000C284A30F700F70B13281628800B0A28F3
:10003000080003081F39830083161F149F141F151F
:100040009F1107309C008313C0308312A000F93049
:10005000A100A430A200B030A3009930A4009230D7
:10006000A5008230A600F830A7008030A8009030AC
:10007000A9000030831685008800FF3083128800B5
:1000800005148510210888000530AA000420FF30DF
:10009000880005108514220888000530AA00042075
:0600A00083163D286300F9
:02400E00723FFF
:00000001FF
;PIC16F877A
;CRC=1E87  CREATED="01-Thg9-21 18:55"
