:1000000000308A001B28000022308400831300087F
:10001000031918280130F800F701F70B0D28F80B29
:100020000C284A30F700F70B13281628800B0A28F3
:100030008A110A12432803081F398300FF30A000E9
:1000400083161F149F141F159F1107309C008313E4
:10005000003087008312A00020112008831687003B
:10006000831207110C309700A01020088316870018
:10007000831287100C309D0096309B002830A10021
:10008000FA30A2000428A10B4028E1309B00003088
:10009000F80005389200F930831692004E2863006C
:02400E00723FFF
:00000001FF
;PIC16F877A
;CRC=F45E  CREATED="01-Thg9-21 19:07"
