:1000000000308A003E28000030308400831300084E
:10001000031918280130F800F701F70B0D28F80B29
:100020000C284A30F700F70B13281628800B0A28F3
:100030000800F801F901F701FA013508031D23282A
:10004000340803193D281030B6000310B20DB30D6B
:10005000F70DFA0D35087A02031D302834087702AF
:10006000031C39283408F702031CFA033508FA0286
:100070000314F80DF90DB60B2528080003081F39E5
:100080008300AA01AB01AC01AD01AF01AE01831643
:100090001F149F141F159F1107309C008313C0303D
:1000A0008312A000F930A100A430A200B030A30058
:1000B0009930A4009230A5008230A600F830A70045
:1000C0008030A8009030A9000030831685000130F0
:1000D0008600003088008312061C9E28061C9B2880
:1000E000FF30880085100515851520302A0784000B
:1000F0008313000888000530B0000420FF3088001A
:1001000085140511851520302B0784008313000802
:1001100088000530B0000420FF30880085140515E4
:10012000851120302C0784008313000888000530D7
:10013000B00004206E28AE0A0319AF0A2F08B300DE
:100140002E08B200B5016430B40019207808AA0066
:100150002F08B3002E08B200B5010A30B4001920F0
:100160007908B1007808B0007908B3007808B200C7
:10017000B5010A30B40019207708AB002F08B3008E
:100180002E08B200B5010A30B40019207708AC007F
:10019000FF30880085100515851520302A0784005A
:1001A0008313000888000530B0000420FF30880069
:1001B00085140511851520302B0784008313000852
:1001C00088000530B0000420FF3088008514051534
:1001D000851120302C078400831300088800053027
:0801E000B00004206C2863004C
:02400E00723FFF
:00000001FF
;PIC16F877A
;CRC=BF4F  CREATED="25-Apr-21 17:53"
