:1000000000308A0019280000213084008313000882
:10001000031918280130F800F701F70B0D28F80B29
:100020000C284A30F700F70B13281628800B0A28F3
:10003000080003081F39830083161F149F141F151F
:100040009F1107309C00831300308600C03083125C
:1000500086006430A1000420F93086006430A100DD
:100060000420A43086006430A1000420B030860053
:100070006430A1000420993086006430A10004207F
:10008000923086006430A100042082308600643003
:10009000A1000420F83086006430A10004208030E4
:1000A00086006430A1000420903086006430A100F6
:0800B0000420831626286300DA
:02400E00723FFF
:00000001FF
;PIC16F877A
;CRC=4617  CREATED="17-Mar-21 16:29"
